:020000040800F2
:10000000D004002045010008A903000805030008EA
:10001000A5030008370200080106000800000000E0
:10002000000000000000000000000000470400087D
:100030006B02000800000000AB0300084904000840
:100040005F0100085F0100085F0100085F01000810
:100050005F0100085F0100085F0100085F01000800
:100060005F0100085F0100085F0100085F010008F0
:100070005F0100085F0100085F0100085F010008E0
:100080005F0100085F0100085F0100085F010008D0
:100090005F0100085F0100085F0100085F010008C0
:1000A0005F0100085F0100085F0100085F010008B0
:1000B0005F0100085F0100085F0100085F010008A0
:1000C0005F0100085F0100085F0100085F01000890
:1000D0005F010008C50500085F0100085F01000816
:1000E0005F0100085F0100085F0100085F01000870
:1000F0005F0100085F0100085F0100085F01000860
:100100005F0100085F0100085F0100085F0100084F
:100110005F0100085F0100085F0100085F0100083F
:100120005F0100085F0100085F0100085F0100082F
:10013000DFF80CD000F04AF800480047190D00081D
:10014000D00400200648804706480047FEE7FEE747
:10015000FEE7FEE7FEE7FEE7FEE7FEE7FEE7FEE777
:1001600061040008310100082DE9F05F0546002018
:1001700092469B4688460646814640241BE0284618
:1001800041464746224600F042F853465A46C01AB6
:10019000914110D311461846224600F029F82D1A35
:1001A00067EB01084F4622460120002100F020F8AD
:1001B00017EB00094E41201EA4F10104DFDC484684
:1001C00031462A464346BDE8F09F0000064C074DE5
:1001D00006E0E06840F0010394E807009847103417
:1001E000AC42F6D3FFF7A8FFD0120008F0120008C7
:1001F000202A04DB203A00FA02F1002070479140E7
:10020000C2F1200320FA03F3194390407047202ADB
:1002100004DB203A21FA02F00021704721FA02F3B0
:10022000D040C2F12002914008431946704710B5F2
:1002300000F0E8F910BD00BFFEE710B5024600234C
:10024000002002E0145C6340401C8842FAD3184648
:1002500010BD10B50446607818B1207800F09CF904
:1002600002E0207800F082F910BD70470C48006869
:1002700020F080700A4908600846006840F08070ED
:1002800008600848006820F0010006490860084638
:10029000006840F0010008600020486070470000DE
:1002A000FCED00E0001000E070B50446002504E01D
:1002B0004FF47A7000F004F86D1CA542F8D370BDBD
:1002C00070B5044607484568012000F09DFD0649C9
:1002D000B0FBF1F0444300BF02484068401BA0421D
:1002E000FAD370BD001000E040420F0010B500F0DE
:1002F0000BF900F029F800F007F8FFF7B7FF00F05E
:1003000091F910BD00BFFEE710B5002417E004EB23
:1003100044010C4A32F8210000F022FE04EB4401B3
:10032000084A02EB81018B6804EB440102EB810176
:1003300002224868042100F091FC601CC4B2032C26
:10034000E5D310BD0000002010B5002424E004EB2C
:100350004401134A32F8210000F002FE04EB44018C
:100360000F4A02EB81018B6804EB440102EB81012F
:1003700002224868102100F071FC04EB4402084B93
:1003800003EB8202916804EB440203EB82025068A3
:1003900000F060FC601CC4B2032CD8D310BD000078
:1003A0002400002000BFFEE77047704710B50446E8
:1003B0002146024800F033F810BD0000C0000020C4
:1003C000C1608260002303604360704710B502463D
:1003D000D2E90003984201D1032010BD1368D06810
:1003E000C05C08701068401C9368B0FBF3F403FB1A
:1003F000140010600020F0E7F0B507460D461646E1
:10040000002407E029193846FFF7E0FF032800D150
:1004100002E0641CB442F5D300BF2046F0BD30B505
:1004200002465068401C9468B0FBF4F504FB1503C9
:100430001068984201D1022030BD5468D06801553F
:1004400053600020F8E770470448036840685A1C6E
:1004500040F1000001490A604860704748000020F0
:1004600008B52648006840F4700024490860244814
:10047000006840F001002249086000BF2048006881
:1004800000F002000028F9D000BF1D48406840F08D
:1004900080001B4948600020009002E00098401C4A
:1004A000009000985028F9D31548406840F090001B
:1004B000134948600020009002E00098401C009022
:1004C00000985028F9D300BF0D48406820F0030081
:1004D0000B494860084600680A4908400849086016
:1004E0004FF41F0088600846006820F480200860F0
:1004F00000204860C86200F0F3FD08BD88ED00E010
:1005000000100240FFFFF6FE70B5012000F07CFCF9
:100510004FF47A71B0FBF1F4601EB0F1807F01D32B
:1005200001201BE0601E4FF0E021486148170F21B9
:10053000002807DA0A07150E0A4A00F00F031B1FEE
:10054000D55403E00A07130E074A135400BF0020D6
:100550004FF0E021886107200861002008B100BF4A
:10056000FEE770BD18ED00E000E400E010B50446C1
:10057000032C00D310BD04EB4402064B03EB8202B4
:10058000916804EB440203EB8202506800F062FBC6
:1005900000BFEFE72400002010B50446032C00D371
:1005A00010BD04EB4402064B03EB8202916804EB9E
:1005B000440203EB8202506800F04EFB00BFEFE7FD
:1005C0002400002010B50B4908680B4900F050FECC
:1005D00070B108490868084900F041FE05490868FB
:1005E00000F0CAFDC4B2204604490968884700BF2C
:1005F00010BD000050000020050305006800002029
:1006000000BFFEE710B5044800F0DAFC4D220349B4
:100610000348FFF7D5FE10BDAD03000870000020B1
:10062000C000002010B500F005F84FF4E13000F0F4
:100630007FF810BD10B50949C88800F091FC074942
:10064000CB6801228868182100F008FB03490B6978
:1006500001228868482100F001FB10BD50000020F5
:100660003EB5002000900190029050E09DF80000FF
:10067000552800D04BE00DF101012848FFF7A6FEF8
:10068000032803D09DF80100AA2800D03FE00DF117
:1006900002012248FFF79AFE032803D09DF80200CA
:1006A0000B2800DD33E09DF80200421C0DF1030130
:1006B0001A48FFF7A1FE9DF80210491C884200D09D
:1006C00025E09DF80200C11C6846FFF7B6FD9DF8C5
:1006D0000210C91C1DF80110884200D017E0104814
:1006E000C078062802D101A8FFF7B3FD002405E079
:1006F0001DF804100BA000F047F8641C9DF80200E0
:10070000001DA042F4D809A000F03EF800BF6946E1
:100710000248FFF75BFE0028A8D03EBDC0000020C5
:100720007000002025303278200000000A00000010
:1007300010B504461349888800F012FC1149086876
:1007400000F024FD0F490868214600F0CDFC0D495A
:100750000868082100F0B2FD0A490868042100F089
:10076000A3FD0849086840F2053100F06BFD05491A
:10077000087D0022114600F0DBFA0249086800F00B
:100780004DFD10BD500000200FB4054B10B503A95E
:10079000044A029800F018F810BC5DF814FB000041
:1007A0002D0C00086C00002002E008C8121F08C1D0
:1007B000002AFAD170477047002001E001C1121FE2
:1007C000002AFBD1704700002DE9FF4F8DB00F4686
:1007D0000546002606E025280BD0DDE90F129047DC
:1007E0006D1C761C28780028F5D111B03046BDE884
:1007F000F08F0024A246A1460122EC4900E0044308
:1008000015F8013F203B02FA03F00842F7D128789F
:100810002A2810D06FF02F022878A0F13001092982
:1008200014D80AEB8A0102EB410144F0020400EB08
:10083000010A6D1CF0E701CF5FEA000A03D544F41A
:100840000054CAF1000A44F002046D1C28782E28D6
:1008500017D115F8010F44F004042A280ED06FF0C8
:100860002F022878A0F1300109290AD809EB890163
:1008700002EB410100EB01096D1CF2E757F8049B04
:100880006D1C28786C280FD006DC4C2817D06828FF
:100890000DD06A2814D104E0742810D07A280FD122
:1008A0000DE044F400140AE044F4801401E044F440
:1008B00040146978814202D104F580146D1C6D1CCE
:1008C0002A786E2A1FD00CDC632A31D004DC002A7F
:1008D0008BD0582A11D1A3E0642A68D0692A0CD1A0
:1008E00065E0732A2ED004DC6F2A73D0702A04D1FD
:1008F0009BE0752A6FD0782A6ED01046DDE90F1282
:100900009047761C50E1C4F30250022806D0032819
:1009100009D0042801CF09D0066045E101CFF117C5
:10092000C0E9006140E101CF06803DE106703BE196
:1009300017F8040B8DF8000000208DF80100EB463D
:10094000012003E057F804BB4FF0FF3061074FF080
:10095000000102D40DE008F10101884649450FDA93
:100960008045F8DB1BF808100029F4D108E008F1F5
:10097000010188468142FADB1BF808100029F6D1F4
:10098000DDE90F23AAEB08008146214600F036F985
:10099000304400EB080604E0DDE90F121BF8010B00
:1009A0009047B8F10108F7D221464846F7E00A21FE
:1009B000C4F302534FF0000B0891022B04D001CF77
:1009C000C117032B09D00AE0FF1D27F00707F7E83E
:1009D000020108E032E01FE020E000B2C117042B62
:1009E00001D140B2C117031E71F1000307DA4FF0C5
:1009F000000CD0EB0C006CEB01012D2302E0230571
:100A000004D52B238DF82430012303E0E30701D024
:100A10002023F7E7984658E00A2110E010210EE065
:100A200010204FF0000B08900CE010214FF0000B4D
:100A300044F004044FF00809089103E008214FF046
:100A4000000B0891C4F30253022B04D001CF002104
:100A5000032B06D006E0FF1D27F00707F7E8020189
:100A600003E080B2042B00D1C0B24FF0000823078E
:100A70002BD5702A07D0DDF820C08CF0100C5CEA72
:100A80000B0C05D00EE040238DF82430012308E044
:100A900050EA010306D030238DF824308DF825204C
:100AA00002239846DDF820C08CF0080C5CEA0B0CA1
:100AB0000BD150EA010301D1630706D530238DF82D
:100AC00024304FF00108A9F10109582A04D038A2B6
:100AD0000B9208AA0A920BE03AA2F9E75B46089A41
:100AE000FFF742FB0B9B9B5C0A9A521E0A92137003
:100AF00050EA0102F2D10A98ADEB000000F1200BA0
:100B0000600702D524F4803401E04FF00109D94593
:100B100002DDA9EB0B0000E0002000EB0B014144DB
:100B20000890AAEB010AE00306D4DDE90F23214671
:100B3000504600F063F806444FF0000908E009A9A8
:100B400011F80900DDE90F12904709F10109761C3F
:100B5000C145F4DBE0030CD5DDE90F232146504607
:100B600000F04CF8064404E0DDE90F123020904715
:100B7000761C0899481E08900029F5DC08E00A98C0
:100B80000A990078491C0A91DDE90F129047761CFA
:100B9000BBF10001ABF1010BF1DC21465046DDE970
:100BA0000F2300F019F806446D1C1BE6092801000C
:100BB00030313233343536373839616263646566D3
:100BC0000000000030313233343536373839414295
:100BD00043444546000000002DE9F041044600254D
:100BE0001E461746880404D405E039462020B04745
:100BF0006D1C641EF9D52846BDE8F0812DE9F04151
:100C0000044600251E469046C80301D5302700E063
:100C10002027880404D505E041463846B0476D1CBE
:100C2000641EF9D52846BDE8F081000070B5044681
:100C30000D46E1B2064A106800F0A3FA00BF04496D
:100C40000868072100F0EFFA0028F8D0204670BDB0
:100C5000500000204161704701617047F0B50446C3
:100C600016460025002201F00F0501F0100747B1DC
:100C7000042E05D145F00305E76B1F43E76300E051
:100C8000354300201EE0012787401F40C7B122687E
:100C90004FEA800C0F2707FA0CF7BA43870005FAD2
:100CA00007F73A43282904D1012787401F4067618D
:100CB00005E0482903D1012787401F4027612260B2
:100CC000471CB8B20828DED3082022E0012787405D
:100CD0001F40E7B16268A0F108074FEA870C0F27B1
:100CE00007FA0CF7BA43A0F10807BF0005FA07F7A7
:100CF0003A43282904D1012787401F40676105E056
:100D0000482903D1012787401F4027616260471CA3
:100D1000B8B21028DAD3F0BDFFF7E8FAFFF787FA88
:100D200005E0FFF79DFC4FF4FA70FFF7BDFAF8E716
:100D30002DE9F04103460D46164600240027A04643
:100D40002A48006800F4E060B0F5E06F03D100BF0E
:100D50004FF0040830E02548006800F4E060B0F58A
:100D6000C06F03D101274FF0030825E01F4800683A
:100D700000F4E060B0F5A06F02D10227B8461BE096
:100D80001A48006800F4E060B0F5806F03D10327D3
:100D90004FF0010810E01548006800F4E060B0F57D
:100DA000407F03D104274FF0000805E04FF4A06016
:100DB00000F020F80227B846C7F1040005FA00F455
:100DC000C8F104010F20C840304004432401084802
:100DD000C45403F01F01012088405911890001F11A
:100DE000E021C1F80001BDE8F08100000CED00E059
:100DF00000E400E002490143024A1160704700002C
:100E00000000FA050CED00E02DE9F04F8CB007462C
:100E100000200A904AA090E8004CC068CDE905BEC9
:100E2000CDF810A007900FF21C1ADAE9000ACDE9FC
:100E3000020A0FF2101ADAE9000ACDE9000A444862
:100E40004068C0F381000B900B9820B1012804D0BA
:100E500002283FD103E03F4A3EE03E4A3CE03C48A6
:100E6000406800F4803CBCF5803F12D13848C06A2D
:100E700000F08048B8F1000F01D1364B00E0364B4E
:100E80003348406800F40039B9F5003F02D15B08EF
:100E900000E0324B2E484068C0F383412C48406844
:100EA00000F0006008B141F010012948406800F0EE
:100EB000804008B141F020010F2901D2891C06E0D1
:100EC0000F2903D33E2901D8491C00E03F2103FB31
:100ED00001F201E01F4A00BF00BF1D484068C0F397
:100EE000031504A8465D22FA06F419484068C0F3C9
:100EF000022502A8465D24FA06F0099014484068CD
:100F0000C0F3C2251DF8056024FA06F0089037B139
:100F1000012F06D0022F06D0032F0AD106E00A9235
:100F200008E00A9406E009980A9003E008980A90FD
:100F300000E000BF00BF0A980CB0BDE8F08F0000D1
:100F40000000000000000000010203040607080979
:100F50000010024000127A00006CDC0200093D0023
:100F6000064A02EB9011096800F01F0301229A4023
:100F70001143024B03EB90121160704700100240C6
:100F8000064A02EB9011096800F01F0301229A4003
:100F90009143024B03EB9012116070470010024026
:100FA000064A02EB9011096800F01F0301229A40E3
:100FB0001143024B03EB9012116070470010024086
:100FC00001490860704700006800002000200021EF
:100FD0003F4A126842F480323D4B1A6000BF401C09
:100FE0003B4A126802F4003119B94FF6FF72904281
:100FF000F5D1374A126802F400320AB900BFFEE7A1
:10100000334AD26942F08052314BDA61314A126878
:1010100042F440422F4B1A602D4A52682C4B5A60C2
:101020001A4652685A601A46526842F480625A6000
:101030001A46526822F440325A601A46526842F404
:1010400040325A601A465268234B1A40204B5A606D
:101050001A465268214B1A431D4B5A601A461268B1
:1010600042F080721A6000BF194A126802F00072E2
:10107000002AF9D0174A126842F48032154B1A60E0
:1010800000BF144A526802F48032002AF9D0114A93
:10109000126842F400320F4B1A6000BF0D4A5268CA
:1010A00002F40032002AF9D0094A526822F0030201
:1010B000074B5A601A46526842F002025A6000BF5B
:1010C000034A526802F00802002AF9D07047000073
:1010D0000010024000700040FFFFC3B7000034085A
:1010E00010B5FFF773FF10BD2DE9F04704460D461C
:1010F0000027B846B94600261D49601A8C421CD00C
:1011000006DC1C48204470B1B0F5806F1FD10FE0A1
:10111000B0F5806F16D0B0F56C4F18D10320FFF7F3
:1011200073FE074614E00220FFF76EFE07460FE04D
:101130000220FFF769FE07460AE00220FFF764FE7F
:10114000074605E00220FFF75FFE074600E000BF0C
:1011500000BF07EB5500B0FBF5F64FF6F07006EA5E
:10116000000806F00F0948EA0900A060BDE8F08712
:10117000004C004000BCFFBF01464868C0F30800B7
:101180007047C1F3080242607047000010B5044682
:101190002049601A8C4228D006DC1F48204490B1B8
:1011A000B0F5806F33D117E0B0F5806F26D0B0F581
:1011B0006C4F2CD140F20E30FFF7F2FE40F20E30B1
:1011C000FFF7DEFE24E040F21140FFF7E9FE40F2B7
:1011D0001140FFF7D5FE1BE040F21240FFF7E0FEA2
:1011E00040F21240FFF7CCFE12E040F21340FFF74E
:1011F000D7FE40F21340FFF7C3FE09E040F214406F
:10120000FFF7CEFE40F21440FFF7BAFE00E000BF49
:1012100000BF10BD004C004000BCFFBFC16841F4DE
:101220000051C160704710B5024602EB9110006892
:1012300001F01F040123A340184008B1012010BD94
:101240000020FCE710B500EB9112126801F01F04BA
:101250000123A3401A4300EB91131A6010BDC1F3A0
:10126000044301229A40D24300EB91531A60704725
:1012700070B5024600230024C1F38910105801F014
:101280001F060125B54000EA050302EB91500068F6
:10129000C1F304460125B54000EA050414B10BB1C1
:1012A000012070BD0020FCE7C26822F00402C26089
:1012B000C26801F004031A43C2607047C26822F09A
:1012C0000802C260C26801F008031A43C260704796
:1012D000F01200080000002070000000A8070008BD
:1012E000601300087000002060040000B8070008C8
:1012F000020600000008014001000000080600008E
:1013000000200140002000000806000000200140ED
:10131000004000000206000000080140000100003B
:10132000060600000018014040000000070600000B
:10133000001C014040000000000000000000000010
:10134000003801400E0602060008014000020000BD
:101350000004000025000000000000000000000064
:0400000508000131BD
:00000001FF
